:100000000C943A000C9457000C9457000C94570031
:100010000C9457000C9457000C9457000C94570004
:100020000C9457000C9457000C9457000C945700F4
:100030000C9457000C9457000C9457000C945700E4
:100040000C9457000C9457000C9457000C945700D4
:100050000C9457000C9457000C9457000C945700C4
:100060000C9457000C9457000C9457000C945700B4
:100070000C94570011241FBECFEFD4E0DEBFCDBFDC
:1000800011E0A0E0B1E0EAECF1E102C005900D92D0
:10009000AC35B107D9F721E0ACE5B1E001C01D9264
:1000A000A839B207E1F70E94FB070C94E3080C940F
:1000B00000000F931F93CF93DF938C01D62FFC0189
:1000C000C0818281882399F0F80181818C1798F092
:1000D0006D2F8C2FF80193810E940602CF5FF4CF21
:1000E0006D2FF80183819C2F0E940602CF5FF801DB
:1000F00081818C17A8F7DF91CF911F910F910895FF
:10010000CF93DF93EC0180E00E94BB04882379F059
:1001100060E0CE010E9459008A81811146C0888129
:100120008823C9F0815088838981815013C081E080
:100130000E94BB048823C1F060E0CE010E945900F8
:100140008A81813059F48981843028F498819F5FB5
:1001500098838F5F8983DF91CF9108958B8184305D
:10016000D0F78F5F8B83F7CF82E00E94BB04882398
:1001700079F060E0CE010E9459008A81811104C0AB
:100180008981863040F7E2CF8B81863020F7E9CF36
:1001900083E00E94BB048823F1F260E0CE010E945C
:1001A00059008A81813009F4BACF8B81882399F272
:1001B0008150D8CFFC01208130E0828141E0811163
:1001C00022C08181821713060CF40895A381C9010E
:1001D00065E070E00E946E08845A9E4FA80FB92F08
:1001E000B11D4C932F5F3F4FECCF838190E065E0D2
:1001F00070E00E946E08845A9E4FDC01A20FB31F6C
:100200004C932F5F3F4F81818217130674F7089537
:10021000CF93DF93EC0160E00E9459002A8189812D
:10022000988121110AC021E02A8323E02B83891BB6
:1002300089831882DF91CF9108951A8222E0F6CF48
:10024000EF92FF921F93CF93DF93D0E0C0E0CE01F7
:10025000845A9E4F7C0110E0F70160818C2F912F12
:100260000E9406021F5FF5E0EF0EF11C1730A1F7A8
:100270002196C530D10559F7DF91CF911F91FF909D
:10028000EF90089561E080E00E9458040C94A2026F
:10029000FC01DB018081882339F094E011969C9366
:1002A0008150808381E008958181882331F093E03B
:1002B00011969C9381508183F5CF8281882331F000
:1002C00092E011969C9381508283ECCF83818823A6
:1002D00031F091E011969C9381508383E3CF80E0CD
:1002E0000895009789F0FC012381621B67FD09C016
:1002F000062E000C770B948181E09617170609F003
:100300000CF480E08170089580E00895FC01892B51
:1003100071F18181481758F59281291740F5938131
:10032000A62FA91BA7FD23C00A2E000CBB0B94818E
:100330009A171B06E1F0DCF0622F0E946508480F57
:10034000858190E0BD010E946E08242F2695269598
:100350002695E80FF91FE20FF11D868190E04770A6
:1003600002C0959587954A95E2F78170089580E0DF
:100370000895853098F4673088F421E030E001C0BA
:10038000220F6A95EAF7E82FF0E0E058FE4F822F3F
:100390008095908189234111822B80830895853037
:1003A00080F4673070F4E82FF0E0E058FE4F81E011
:1003B00090E001C0880F6A95EAF79081982381E068
:1003C00009F480E0089560917F01E62FF0E0E058A5
:1003D000FE4F80810E94830580917F018F5F853071
:1003E00018F480937F01089510927F010895E0E84A
:1003F000F1E01082118212821382148208950E9409
:1004000061050C94F701692F0C94CF0141E0611153
:1004100001C040E0692F0C94B9010C9406027F9250
:100420008F929F92AF92BF92CF92DF92EF92FF9204
:100430000F931F93CF93DF93762E872EB42E7C01DC
:10044000C62F660FDD0BC81BD10987FDD395072F7B
:10045000770F110B0F191109F7FC1395AA24AA9411
:10046000D7FD02C0AA24A39499249A9417FD02C030
:1004700099249394D7FF03C0D195C195D10917FF53
:1004800003C01195019511096E01D594C794C01749
:10049000D107F4F46801D594C794F814D9F06B2D02
:1004A000C7010E940602CC1ADD0AD7FE03C0C00EA7
:1004B000D11EEA0CF90CF1CF6B2DC7010E94060288
:1004C000C01AD10AD7FE03C0CC0EDD1EF90CEA0C0F
:1004D000E710F2CF6B2DC701DF91CF911F910F91E4
:1004E000FF90EF90DF90CF90BF90AF909F908F9054
:1004F0007F900C940602FF920F931F93CF93DF938C
:10050000D82FF92E162FC72F042F792F0E940F02F4
:10051000402F6D2F7C2F8D2F9F2D0E940F02402F7B
:10052000612F7C2F812F9F2D0E940F02402F612F62
:100530007C2F8D2F9C2FDF91CF911F910F91FF90DA
:100540000C940F020E94F701E0E0F1E0118A14869A
:100550000895DF92EF92FF920F931F93CF93DF9353
:10056000D82E7B01162F0F2D80910201909103014F
:10057000C0E0019751F11E2D1C0FE0910801F09190
:1005800009018181C81708F45CC0C0E0E09108014E
:10059000F09109018281C81708F455C01F5F27C078
:1005A0002D2F4C2F6D2D0E948601682F8E2D8D0FC3
:1005B000902F0E940602DF5F80910801909109014F
:1005C000FC012281D21760F3CF5F0F2D0C1BE0914D
:1005D0000801F09109018181C81798F0C0E0E0910D
:1005E0000801F09109018281C81768F00150812F3C
:1005F000902FDF91CF911F910F91FF90EF90DF909F
:100600000895D0E0D9CF60E08E2D8C0F902F0E94FE
:100610000602CF5FE4CF2D2F4C2F6D2D0E94860157
:10062000682F812F9F2D9D0F0E940602DF5F809112
:10063000080190910901FC012281D21760F3CF5F7C
:100640009ACFD0E0F4CF60E0812F9F2D9C0F0E94C5
:100650000602CF5F9BCF0F931F93CF938C01C0E017
:10066000F80181918F01882341F00E94A902BC0109
:10067000CF5F853014F477FFF3CF8C2FCF911F918C
:100680000F9108950F931F93CF93DF938C019B01DC
:1006900010920C0140930D0110921001C0910801BD
:1006A000D0910901209709F444C089816091060125
:1006B0007091070190E00E946E08BC0180910A01D0
:1006C00090910B010E947F08CB016AE070E00E94CC
:1006D0006E0890930F0180930E01309305012093D3
:1006E000040140E250E0B80181E191E00E94D408A9
:1006F00080910001909101010197D9F4F8010190D6
:100700000020E9F73197BF01601B710B89818F5F72
:100710000E9465088150209102013091030195E00B
:100720002130310509F497E0981718F48EEF809383
:100730001001DF91CF911F910F9108952091020137
:100740003091030170E02130310509F476E04FEF7C
:1007500060E00C94420390E09093070180930601BF
:1007600008959093010180930001089590930301EF
:1007700080930201089590930901809308010895E0
:1007800080918501909186010196909386018093D6
:10079000850120910E0130910F018217930708F413
:1007A00041C01092860110928501E0910C01F0E0A9
:1007B000E050FF4F8189811109C080910D01823085
:1007C00088F1815080930D0110920C0180910C01F1
:1007D00090E0FC01E050FF4F2189222319F1209184
:1007E0001001409100015091010141155105E1F0C6
:1007F0004130510551F1809110018F5F80931001BC
:10080000082E000C990BE0910801F091090121815B
:10081000281719063CF41092100180910C018F5F8B
:1008200080930C010C94E3012111E5CF6091040148
:10083000709105018F5E9E4F0E942B0390910C01D9
:100840009150890F80930C01D6CF60910401709173
:10085000050140910201509103014130510531F4ED
:10086000720F8F5E9E4F0E942B03C5CF621BF9CF84
:10087000CF93DF93C0E0D1E09B878A870E94FF017E
:1008800084E190E09F838E83DF91CF910C94A2024C
:10089000E1E6F0E080E880831082A89584B7877F46
:1008A00084BFE0E6F0E08081886180831082089553
:1008B000811105C0662311F0429A08954298089567
:1008C0003A9A429A08951092800084E080938100C1
:1008D0001092850010928400089580918400909178
:1008E00085000895AC0180918400909185009C0161
:1008F000241B350B283E3340B0F708952091840027
:1009000030918500820F931F0C9472046230710540
:1009100059F128F461307105E1F080E00895633009
:10092000710559F064307105C1F7FC01FF2784A1FE
:10093000892B84A385A1892B09C0FC01FF2784A1F1
:10094000892B84A325A1892F8095822385A381E00B
:100950000895FC01FF2724A1892F8095922F9823C9
:1009600094A395A18923F2CFFC01FF2724A1892F0D
:1009700080958223DECFE82FF0E0EE0FFF1FE957CE
:10098000FE4F8081882329F0818191E08927817041
:10099000089580E0FCCFE82FF0E0EE0FFF1FE9574D
:1009A000FE4F8081811103C081818170089580E0B4
:1009B000FCCFE82FF0E0EE0FFF1FE957FE4F8081DC
:1009C0000895E82FF0E0EE0FFF1FE957FE4F9081EA
:1009D00081E0892708957F928F929F92AF92BF9274
:1009E000CF92DF92EF92FF920F931F93CF93DF93FB
:1009F000C7E8D1E052E3C52E51E0D52E66E0762E51
:100A000088818983F601019111916F015801BB24FE
:100A1000F50124A1E12EFF2485A190E08E219F21E4
:100A200030E02E213F21232BB1F133E0832E912C96
:100A3000892B19F094E0892E912C64E070E0C801B4
:100A40000E94860462E070E0C8010E948604872D3F
:100A50008A95F1F7F50183A190E0E822F92281E07F
:100A6000EF2809F080E08883B401C8010E94860461
:100A70002296F1E0C139DF0719F6DF91CF911F917E
:100A80000F91FF90EF90DF90CF90BF90AF909F902D
:100A90008F907F90089588248394912C892B69F2FC
:100AA00082E0882E912CC9CF08959C01FC01FF277C
:100AB00084A1832B84A395A1892F832B85A381E017
:100AC0000895CF93DF93C6E4D1E0899199910E9474
:100AD000550581E0C435D807C1F783E090E40E9452
:100AE000550580E090E80E94550583E090E10E9462
:100AF000550583E090E80E94550583E090E2DF9180
:100B0000CF910C945505E0919101F0E0EE0FFF1F9D
:100B1000E45CFE4F20813181F901FF2795A1932BE1
:100B200095A3A6E4B1E02D913D91F901FF2780FF47
:100B30001CC025A1932F9095922395A3869591E0B3
:100B4000A435B90781F7E62FF0E0EE0FFF1FE45C54
:100B5000FE4F20813181F901FF2795A1832F8095D8
:100B6000892385A360939101089595A1932BE5CFE7
:100B7000CF93DF93EC010E9463049E0150E040E0BC
:100B800062E17AE780E090E00E949308309395015B
:100B900020939401DF91CF910895809192019091DB
:100BA00093010E947204809192019091930120918F
:100BB000940130919501820F931F9093930180933C
:100BC000920108950C94C1060C94E2060C94C70699
:100BD0000C94CD060C94D3060E94D3060E94CD0639
:100BE0008823E1F38CE291E00197F1F70E94C106BE
:100BF00081110C94E40508950C94E906CF93DF93DA
:100C000000D01F92CDB7DEB780915401909155016D
:100C1000A091560189839A83AB83509A589A0E9477
:100C200094068FE690E00E942B0681E090E00E94FF
:100C3000830661E070E081E090E00E9470060E940F
:100C40005C06CE0101960E94A9060F900F900F90AE
:100C5000DF91CF910895CF93DF931F92CDB7DEB789
:100C60009E012F5F3F4F45E067E571E00E94F5066A
:100C700091E0980F909331019981915097BD18BCE4
:100C800095B5977039F025B5909131019770287F0F
:100C9000922B95BD298130E0E82FF0E0E95AFE4F14
:100CA0008081A90102C0440F551F8A95E2F7CA014D
:100CB0000F90DF91CF91089585B3897F85BB95B55E
:100CC000809131018770987F892B85BD089585B506
:100CD000887F85BD089585B382FB882780F90895B4
:100CE000009719F0019751F0089584B58F736295BC
:100CF000660F660F607C682B64BD089584B56295AD
:100D000060738F7CF8CF009721F0019739F080E075
:100D1000089584B58C7F84BD81E0089584B58E7F6D
:100D200084BD84B58260F7CF14BC15BC16BC18BC5A
:100D300084B58E7F84BD84B5826084BD81E00895D2
:100D40009C01215031093093CD0081508093CC001B
:100D50000895CF93DF93EC01888199810E94A006CA
:100D60008A819BEF980F943008F088E098E1909387
:100D7000C9008550880F8093CA0081E0DF91CF9130
:100D800008958091C800881F8827881F0895809142
:100D9000C80085FB882780F908958091C80086FBEC
:100DA000882780F90895CF93C82F0E94C70688230B
:100DB000E1F38091C80080648093C800C093CE00A6
:100DC000CF9108958091C80087FFFCCF8091CE001D
:100DD0000895CF93DF93EC018991811103C0DF91D6
:100DE000CF9108950E94D306F7CFCF93DF93DC0114
:100DF000FB0160E080E0C1E0D0E0841305C0F901B0
:100E00006083DF91CF9108959191BE01092E02C0B8
:100E1000660F771F0A94E2F76F5F7F4F76956795AD
:100E20006A0F7B1F02C0769567959A95E2F76F3F30
:100E3000710529F320F38F5FE0CF3F924F925F92CD
:100E40006F927F928F929F92AF92BF92CF92DF92DA
:100E5000EF92FF920F931F93CF93DF938C017B014F
:100E6000712C512CD0E0C0E0612CB12C442443946F
:100E70006C0183E2C80ED11C0E94CD050E94EB04D8
:100E800084E00E94BB04382E8823B9F0762C7424A9
:100E900082E70E94EC0558014501F5E08F0E911C98
:100EA000F50181915F01805D0E94EC058A149B042D
:100EB000B9F7C814D90481F7B32C0E94E205A82E13
:100EC000882399F10E94E405282F823759F4712C68
:100ED0006A2CBB2089F27B2C2EC066246394BB2431
:100EE000B394CACF80ED820F8330F8F4DB30E9F0A1
:100EF000223309F423E38D2F90E065E070E00E9437
:100F00006E088E0D9F1DFC01EC0FF11D20532083F8
:100F1000C43051F4DF5FD73029F461E080E00E94F3
:100F200058045A2CC0E001C0CF5FBB2009F4A4CF05
:100F3000662009F4A1CF552081F2872DDF91CF9152
:100F40001F910F91FF90EF90DF90CF90BF90AF90E7
:100F50009F908F907F906F905F904F903F900895FB
:100F600084E60C94EC050E94E205982F882331F06A
:100F70000E94E40591E0843609F090E0892F0895FD
:100F800081110CC080919601882331F080919701E6
:100F900091E089278170089580E0FCCF80E008957A
:100FA00081110AC080919601811104C0809197013E
:100FB0008170089580E0FCCF80E00895811103C026
:100FC00080919601089580E00895811105C0809177
:100FD000960191E08927089580E00895E6E9F1E01F
:100FE0008081818389B1881F8827881F8083089525
:100FF00057985F980895CF93DF93CDB7DEB7AB973F
:101000000FB6F894DEBF0FBECDBF0E9448040E9409
:1010100054050E9460048CE291E00E9438048CE246
:1010200091E00E94B8050E94F8070E94FE0512E0B8
:1010300018A719A601E00AA71BA660E080E00E949D
:1010400058040CA31FA31EA2BE016C5D7F4FCE01EE
:1010500088960E9448010E94CD050E94EB040E94E0
:10106000EE0780E00E94C007882321F0CE0184961D
:101070000E9408010E942001CE0184960E948000F7
:1010800061E0CE0184960E94590084E00E94BB0476
:101090008823C1F0CE0184960E94DA00BE016C5D07
:1010A0007F4FCE0188960E94480181110BC00E949B
:1010B000A2020E94C003BE016F5F7F4F8CE591E0EA
:1010C0000E941D070E94C003C6CF002480FD060EAB
:1010D000660F11F08695D1F7802D089500245527CD
:1010E00004C0080E591F880F991F009729F07695A4
:1010F0006795B8F37105B9F7802D952F0895AA1B50
:10110000BB1B51E107C0AA1FBB1FA617B70710F0F2
:10111000A61BB70B881F991F5A95A9F78095909524
:10112000BC01CD010895052E97FB1EF400940E948A
:10113000AA0857FD07D00E94B20807FC03D04EF45E
:101140000C94AA0850954095309521953F4F4F4FEC
:101150005F4F089590958095709561957F4F8F4F63
:101160009F4F0895A1E21A2EAA1BBB1BFD010DC0C3
:10117000AA1FBB1FEE1FFF1FA217B307E407F50747
:1011800020F0A21BB30BE40BF50B661F771F881F23
:10119000991F1A9469F760957095809590959B01B9
:1011A000AC01BD01CF010895FB01DC01415050406D
:1011B00048F001900D920020C9F701C01D924150E6
:0A11C0005040E0F70895F894FFCFC7
:1011CA000000000000001400000000000000000001
:1011DA000000000000000000000000000000000005
:1011EA0000000000000000000000000000000000F5
:1011FA0000010380034003200080031003400080A5
:10120A00031003800320004000200010000800049F
:0C121A0000020001D00008000306080AD2
:00000001FF
