:100000000C943A000C9457000C9457000C94570031
:100010000C9457000C9457000C9457000C94570004
:100020000C9457000C9457000C9457000C945700F4
:100030000C9457000C9457000C9457000C945700E4
:100040000C9457000C9457000C9457000C945700D4
:100050000C9457000C9457000C9457000C945700C4
:100060000C9457000C9457000C9457000C945700B4
:100070000C94570011241FBECFEFD4E0DEBFCDBFDC
:1000800011E0A0E0B1E0E4E0F1E102C005900D92E2
:10009000A438B107D9F721E0A4E8B1E001C01D926E
:1000A000AD39B207E1F70E94CE070C9480080C949A
:1000B00000000F931F93CF93DF938C01D62FC09135
:1000C0002301FC018281882399F0F80181818C173A
:1000D00098F06D2F8C2F909126010E94D901CF5F4F
:1000E000F4CF6D2F809126019C2F0E94D901CF5F04
:1000F000F80181818C17A8F7DF91CF911F910F91A3
:100100000895CF93DF93EC0180E00E948E04882352
:1001100079F060E0CE010E9459008A81811146C0C9
:1001200088818823C9F0815088838981815013C0D8
:1001300081E00E948E048823C1F060E0CE010E941D
:1001400059008A81813059F48981843028F498815A
:100150009F5F98838F5F8983DF91CF9108958B8113
:100160008430D0F78F5F8B83F7CF82E00E948E04BC
:10017000882379F060E0CE010E9459008A818111C4
:1001800004C08981863040F7E2CF8B81863020F72A
:10019000E9CF83E00E948E048823F1F260E0CE0173
:1001A0000E9459008A81813009F4BACF8B8188235B
:1001B00099F28150D8CFFC012091230130E0828157
:1001C00041E0811122C08181821713060CF4089549
:1001D000A381C90165E070E00E940B0880509F4F29
:1001E000A80FB92FB11D4C932F5F3F4FECCF8381E8
:1001F00090E065E070E00E940B0880509F4FDC01AA
:10020000A20FB31F4C932F5F3F4F818182171306BC
:1002100074F70895CF93DF93EC0160E00E945900DA
:100220002A818981988121110AC021E02A8323E053
:100230002B83891B89831882DF91CF9108951A82BD
:1002400022E0F6CFEF92FF921F93CF93DF93D0E09F
:10025000C0E0CE0180509F4F7C0110E0F70160812B
:10026000812F9C2F0E94D9011F5FF5E0EF0EF11C3A
:100270001730A1F72196C530D10559F7DF91CF91FD
:100280001F91FF90EF900895009789F0FC01238162
:10029000621B67FD09C0062E000C770B948181E07C
:1002A0009617170609F00CF480E08170089580E03D
:1002B0000895FC01892B71F18181481758F59281CD
:1002C000291740F59381A62FA91BA7FD23C00A2E4D
:1002D000000CBB0B94819A171B06E1F0DCF0622F37
:1002E0000E940208480F858190E0BD010E940B0822
:1002F000242F269526952695E80FF91FE20FF11D6C
:10030000868190E0477002C0959587954A95E2F7FF
:100310008170089580E00895853098F4673088F4FE
:1003200021E030E001C0220F6A95EAF7E82FF0E003
:10033000EB57FE4F822F8095908189234111822BAC
:1003400080830895853080F4673070F4E82FF0E002
:10035000EB57FE4F81E090E001C0880F6A95EAF705
:100360009081982381E009F480E0089560918401F0
:10037000E62FF0E0EB57FE4F80810E9456058091FA
:1003800084018F5F853018F4809384010895109262
:1003900084010895E5E8F1E010821182128213824F
:1003A000148208950E9434050C94CA01692F0C949C
:1003B000A20141E0611101C040E0692F0C948C0161
:1003C0000C94D9017F928F929F92AF92BF92CF925D
:1003D000DF92EF92FF920F931F93CF93DF93762ECE
:1003E000872EB42E7C01C62F660FDD0BC81BD109EA
:1003F00087FDD395072F770F110B0F191109F7FC04
:100400001395AA24AA94D7FD02C0AA24A3949924E0
:100410009A9417FD02C099249394D7FF03C0D195F5
:10042000C195D10917FF03C01195019511096E01FE
:10043000D594C794C017D107F4F46801D594C79434
:10044000F814D9F06B2DC7010E94D901CC1ADD0A2E
:10045000D7FE03C0C00ED11EEA0CF90CF1CF6B2DF4
:10046000C7010E94D901C01AD10AD7FE03C0CC0E21
:10047000DD1EF90CEA0CE710F2CF6B2DC701DF91FE
:10048000CF911F910F91FF90EF90DF90CF90BF9091
:10049000AF909F908F907F900C94D901FF920F9313
:1004A0001F93CF93DF93D82FF92E162FC72F042F2A
:1004B000792F0E94E201402F6D2F7C2F8D2F9F2DD1
:1004C0000E94E201402F612F7C2F812F9F2D0E94DF
:1004D000E201402F612F7C2F8D2F9C2FDF91CF9138
:1004E0001F910F91FF900C94E2010E94CA01E7E274
:1004F000F1E0118A14860895DF92EF92FF920F9334
:100500001F93CF93DF93D82E7B01162F0F2D809151
:10051000290190912A01C0E0019751F11E2D1C0F75
:10052000E0912F01F09130018181C81708F45CC07F
:10053000C0E0E0912F01F09130018281C81708F4EA
:1005400055C01F5F27C02D2F4C2F6D2D0E945901C4
:10055000682F8E2D8D0F902F0E94D901DF5F809123
:100560002F0190913001FC012281D21760F3CF5FFF
:100570000F2D0C1BE0912F01F09130018181C817E4
:1005800098F0C0E0E0912F01F09130018281C8170E
:1005900068F00150812F902FDF91CF911F910F9123
:1005A000FF90EF90DF900895D0E0D9CF60E08E2DDE
:1005B0008C0F902F0E94D901CF5FE4CF2D2F4C2FAD
:1005C0006D2D0E945901682F812F9F2D9D0F0E9434
:1005D000D901DF5F80912F0190913001FC012281D0
:1005E000D21760F3CF5F9ACFD0E0F4CF60E0812FD5
:1005F0009F2D9C0F0E94D901CF5F9BCF0F931F931C
:10060000CF938C01C0E0F80181918F01882341F0E4
:100610000E947C02BC01CF5F853014F477FFF3CFDA
:100620008C2FCF911F910F9108950F931F93CF930C
:10063000DF938C019B01109233014093340110929F
:100640003701C0912F01D0913001209709F444C0A7
:10065000898160912D0170912E0190E00E940B081C
:10066000BC0180913101909132010E941C08CB01A4
:100670006AE070E00E940B08909336018093350188
:1006800030932C0120932B0140E250E0B80188E325
:1006900091E00E94710880912701909128010197B3
:1006A000D9F4F80101900020E9F73197BF01601BF0
:1006B000710B89818F5F0E9402088150209129016E
:1006C00030912A0195E02130310509F497E098171F
:1006D00018F48EEF80933701DF91CF911F910F9126
:1006E00008952091290130912A0170E021303105CF
:1006F00009F476E04FEF60E00C94150390E09093DE
:100700002E0180932D010895909328018093270155
:10071000089590932A0180932901089590933001C0
:1007200080932F01089580918A0190918B01019609
:1007300090938B0180938A0120913501309136018D
:100740008217930708F441C010928B0110928A011E
:10075000E0913301F0E0E95DFE4F8189811109C02C
:1007600080913401823088F181508093340110925D
:1007700033018091330190E0FC01E95DFE4F218956
:10078000222319F12091370140912701509128012E
:1007900041155105E1F04130510551F1809137018A
:1007A0008F5F80933701082E000C990BE0912F0189
:1007B000F09130012181281719063CF4109237017D
:1007C000809133018F5F809333010C94B601211126
:1007D000E5CF60912B0170912C01885C9E4F0E94A7
:1007E000FE02909133019150890F80933301D6CF4F
:1007F00060912B0170912C014091290150912A01A7
:100800004130510531F4720F885C9E4F0E94FE0208
:10081000C5CF621BF9CFCF93DF93C7E2D1E09B87AF
:100820008A870E94D20184E190E09F838E83DF91CA
:10083000CF910C947502E1E6F0E080E880831082AD
:10084000A89584B7877F84BFE0E6F0E08081886167
:10085000808310820895811105C0662311F0429AA9
:100860000895429808953A9A429A08951092800005
:1008700084E0809381001092850010928400089596
:1008800080918400909185000895AC01809184004E
:10089000909185009C01241B350B283E3340B0F716
:1008A00008952091840030918500820F931F0C944D
:1008B00045046230710559F128F461307105E1F0A9
:1008C00080E008956330710559F064307105C1F717
:1008D000FC01FF2784A1892B84A385A1892B09C052
:1008E000FC01FF2784A1892B84A325A1892F809552
:1008F000822385A381E00895FC01FF2724A1892F8D
:100900008095922F982394A395A18923F2CFFC017F
:10091000FF2724A1892F80958223DECFE82FF0E0E6
:10092000EE0FFF1FE457FE4F8081882329F081815D
:1009300091E089278170089580E0FCCFE82FF0E0F6
:10094000EE0FFF1FE457FE4F8081811103C08181AC
:100950008170089580E0FCCFE82FF0E0EE0FFF1FDC
:10096000E457FE4F80810895E82FF0E0EE0FFF1F5F
:10097000E457FE4F908181E0892708957F928F92FE
:100980009F92AF92BF92CF92DF92EF92FF920F931E
:100990001F93CF93DF93CCE8D1E059E5C52E51E00A
:1009A000D52E66E0762E88818983F601019111911A
:1009B0006F015801BB24F50124A1E12EFF2485A17C
:1009C00090E08E219F2130E02E213F21232BB1F199
:1009D00033E0832E912C892B19F094E0892E912CF1
:1009E00064E070E0C8010E94590462E070E0C80150
:1009F0000E945904872D8A95F1F7F50183A190E0B3
:100A0000E822F92281E0EF2809F080E08883B40130
:100A1000C8010E9459042296F1E0C639DF0719F691
:100A2000DF91CF911F910F91FF90EF90DF90CF90CA
:100A3000BF90AF909F908F907F900895882483946B
:100A4000912C892B69F282E0882E912CC9CF0895D0
:100A50009C01FC01FF2784A1832B84A395A1892FEE
:100A6000832B85A381E00895CF93DF93CDE6D1E07A
:100A7000899199910E94280581E0CB37D807C1F769
:100A800083E090E40E94280580E090E80E94280519
:100A900083E090E10E94280583E090E80E94280509
:100AA00083E090E2DF91CF910C942805E0919601CC
:100AB000F0E0EE0FFF1FED59FE4F20813181F9016B
:100AC000FF2795A1932B95A3ADE6B1E02D913D9124
:100AD000F901FF2780FF1CC025A1932F9095922339
:100AE00095A3869591E0AB37B90781F7E62FF0E043
:100AF000EE0FFF1FED59FE4F20813181F901FF27D5
:100B000095A1832F8095892385A3609396010895ED
:100B100095A1932BE5CFCF93DF93EC010E94360490
:100B20009E0150E040E062E17AE780E090E00E94C0
:100B3000300830939A0120939901DF91CF91089565
:100B400080919701909198010E94450480919701AE
:100B5000909198012091990130919A01820F931FF1
:100B6000909398018093970108950C9494060C94A7
:100B7000B5060C949A060C94A0060C94A6060E9446
:100B8000A6060E94A0068823E1F38CE291E001977B
:100B9000F1F70E94940681110C94B70508950C9406
:100BA000BC06CF93DF9300D01F92CDB7DEB7809104
:100BB0007B0190917C01A0917D0189839A83AB8315
:100BC000509A589A0E9467068FE690E00E94FE05B0
:100BD00081E090E00E94560661E070E081E090E0E4
:100BE0000E9443060E942F06CE0101960E947C06B9
:100BF0000F900F900F90DF91CF910895CF93DF93D7
:100C00001F92CDB7DEB79E012F5F3F4F45E06EE7E5
:100C100071E00E94C80691E0980F90935801998165
:100C2000915097BD18BC95B5977039F025B5909146
:100C300058019770287F922B95BD298130E0E82FCD
:100C4000F0E0E258FE4F8081A90102C0440F551F19
:100C50008A95E2F7CA010F90DF91CF91089585B38D
:100C6000897F85BB95B5809158018770987F892BC6
:100C700085BD089585B5887F85BD089585B382FBC0
:100C8000882780F90895009719F0019751F0089589
:100C900084B58F736295660F660F607C682B64BDA8
:100CA000089584B5629560738F7CF8CF009721F02A
:100CB000019739F080E0089584B58C7F84BD81E090
:100CC000089584B58E7F84BD84B58260F7CF14BC4F
:100CD00015BC16BC18BC84B58E7F84BD84B58260FB
:100CE00084BD81E008959C01215031093093CD00ED
:100CF00081508093CC000895CF93DF93EC018881DD
:100D000099810E9473068A819BEF980F943008F0B6
:100D100088E098E19093C9008550880F8093CA00BD
:100D200081E0DF91CF9108958091C800881F8827C6
:100D3000881F08958091C80085FB882780F9089551
:100D40008091C80086FB882780F90895CF93C82F2B
:100D50000E949A068823E1F38091C8008064809302
:100D6000C800C093CE00CF9108958091C80087FF3E
:100D7000FCCF8091CE000895CF93DF93EC01899151
:100D8000811103C0DF91CF9108950E94A606F7CF8D
:100D9000CF93DF93DC01FB0160E080E0C1E0D0E0B5
:100DA000841305C0F9016083DF91CF91089591917B
:100DB000BE01092E02C0660F771F0A94E2F76F5F2B
:100DC0007F4F769567956A0F7B1F02C07695679572
:100DD0009A95E2F76F3F710529F320F38F5FE0CF1B
:100DE0003F924F925F926F927F928F929F92AF92BB
:100DF000BF92CF92DF92EF92FF920F931F93CF9308
:100E0000DF938C017B01712C512CD0E0C0E0612C70
:100E1000B12C442443946C0185EAC80ED11C0E9475
:100E2000A0050E94BE0484E00E948E04382E882310
:100E3000B9F0762C742482E70E94BF055801450161
:100E4000FFE08F0E911CF50181915F01805D0E9492
:100E5000BF058A149B04B9F7C814D90481F7B32CD1
:100E60000E94B505A82E882399F10E94B705282F66
:100E7000823759F4712C6A2CBB2089F27B2C2EC04E
:100E800066246394BB24B394CACF80ED820F833071
:100E9000F8F4DB30E9F0223309F423E38D2F90E0FE
:100EA0006FE070E00E940B088E0D9F1DFC01EC0F9F
:100EB000F11D20532083CE3051F4DF5FDB3029F465
:100EC00061E080E00E942B045A2CC0E001C0CF5F9B
:100ED000BB2009F4A4CF662009F4A1CF552081F2EC
:100EE000872DDF91CF911F910F91FF90EF90DF90B1
:100EF000CF90BF90AF909F908F907F906F905F90BA
:100F00004F903F90089584E60C94BF050E94B5056C
:100F1000982F882331F00E94B70591E0843609F0BC
:100F200090E0892F089581110CC080919B01882346
:100F300031F080919C0191E089278170089580E0D3
:100F4000FCCF80E0089581110AC080919B0181113E
:100F500004C080919C018170089580E0FCCF80E006
:100F60000895811103C080919B01089580E0089548
:100F7000811105C080919B0191E08927089580E04F
:100F80000895EBE9F1E08081818389B1881F88278A
:100F9000881F8083089557985F9808950E941B04C6
:100FA0000E9427050E9433048CE291E00E940B040A
:100FB0008CE291E00E948B050E94CB0760E080E00C
:100FC0000E942B040E94A0050E94BE040E94C1073B
:100FD00080E00E949307882321F083E291E00E9441
:100FE0000A010E94220183E291E00E94810061E0F7
:100FF00083E291E00E94590084E00E948E040E94E6
:101000009303E0CF002480FD060E660F11F0869555
:10101000D1F7802D08950024552704C0080E591FCC
:10102000880F991F009729F076956795B8F3710599
:10103000B9F7802D952F0895AA1BBB1B51E107C05E
:10104000AA1FBB1FA617B70710F0A61BB70B881F58
:10105000991F5A95A9F780959095BC01CD010895E7
:10106000052E97FB1EF400940E94470857FD07D0F9
:101070000E944F0807FC03D04EF40C94470850958B
:101080004095309521953F4F4F4F5F4F0895909574
:101090008095709561957F4F8F4F9F4F0895A1E286
:1010A0001A2EAA1BBB1BFD010DC0AA1FBB1FEE1FE2
:1010B000FF1FA217B307E407F50720F0A21BB30B2D
:1010C000E40BF50B661F771F881F991F1A9469F7A9
:1010D00060957095809590959B01AC01BD01CF0105
:1010E0000895FB01DC014150504048F001900D9201
:1010F0000020C9F701C01D9241505040E0F708950B
:04110000F894FFCF91
:1011040001000100000101010100010001000001D2
:1011140000000000010000000001000000000100C8
:1011240000000001040002000000000000140000A0
:1011340000000000000000000000000000000000AB
:10114400000000000000000000000000000000009B
:1011540000000000000000000103800340032000A1
:10116400800310034000800310038003200040002C
:101174002000100008000400020001D00008000351
:0411840006080A004F
:00000001FF
