:100000000C943A000C9457000C9457000C94570031
:100010000C9457000C9457000C9457000C94570004
:100020000C9457000C9457000C9457000C945700F4
:100030000C9457000C9457000C9457000C945700E4
:100040000C9457000C9457000C9457000C945700D4
:100050000C9457000C9457000C9457000C945700C4
:100060000C9457000C9457000C9457000C945700B4
:100070000C94570011241FBECFEFD4E0DEBFCDBFDC
:1000800013E0A0E0B1E0E4E1FFE002C005900D92D2
:10009000A23EB107D9F723E0A2EEB3E001C01D9262
:1000A000A93FB207E1F70E94A8060C9488070C94B8
:1000B0000000009789F0FC012381621B67FD09C0E5
:1000C000062E000C770B948181E09617170609F035
:1000D0000CF480E08170089580E00895FC01892B84
:1000E00071F18181481758F59281291740F5938164
:1000F000A62FA91BA7FD23C00A2E000CBB0B9481C1
:100100009A171B06E1F0DCF0622F0E940A07480FE5
:10011000858190E0BD010E941307242F2695269526
:100120002695E80FF91FE20FF11D868190E04770D8
:1001300002C0959587954A95E2F78170089580E011
:100140000895853098F4673088F421E030E001C0EC
:10015000220F6A95EAF7E82FF0E0ED51FC4F822F6D
:100160008095908189234111822B80830895853069
:1001700080F4673070F4E82FF0E0ED51FC4F81E03F
:1001800090E001C0880F6A95EAF79081982381E09A
:1001900009F480E008956091E203E62FF0E0ED516C
:1001A000FC4F80810E946B048091E2038F5F853059
:1001B00018F48093E20308951092E2030895E3EEA9
:1001C000F3E01082118212821382148208950E9439
:1001D00049040C94DF00692F0C94B70041E06111D1
:1001E00001C040E0692F0C94A1000C94EE007F92B6
:1001F0008F929F92AF92BF92CF92DF92EF92FF9237
:100200000F931F93CF93DF93762E872EB42E7C010E
:10021000C62F660FDD0BC81BD10987FDD395072FAD
:10022000770F110B0F191109F7FC1395AA24AA9443
:10023000D7FD02C0AA24A39499249A9417FD02C062
:1002400099249394D7FF03C0D195C195D10917FF85
:1002500003C01195019511096E01D594C794C0177B
:10026000D107F4F46801D594C794F814D9F06B2D34
:10027000C7010E94EE00CC1ADD0AD7FE03C0C00EF3
:10028000D11EEA0CF90CF1CF6B2DC7010E94EE00D4
:10029000C01AD10AD7FE03C0CC0EDD1EF90CEA0C41
:1002A000E710F2CF6B2DC701DF91CF911F910F9116
:1002B000FF90EF90DF90CF90BF90AF909F908F9086
:1002C0007F900C94EE00FF920F931F93CF93DF93D8
:1002D000D82FF92E162FC72F042F792F0E94F70041
:1002E000402F6D2F7C2F8D2F9F2D0E94F700402FC8
:1002F000612F7C2F812F9F2D0E94F700402F612FAF
:100300007C2F8D2F9C2FDF91CF911F910F91FF900C
:100310000C94F7000E94DF00E5EAF1E0118A1486F0
:100320000895DF92EF92FF920F931F93CF93DF9385
:10033000D82E7B01162F0F2D8091A7019091A80137
:10034000C0E0019751F11E2D1C0FE091AD01F0911D
:10035000AE018181C81708F45CC0C0E0E091AD0136
:10036000F091AE018281C81708F455C01F5F27C005
:100370002D2F4C2F6D2D0E946E00682F8E2D8D0F0E
:10038000902F0E94EE00DF5F8091AD019091AE0151
:10039000FC012281D21760F3CF5F0F2D0C1BE0917F
:1003A000AD01F091AE018181C81798F0C0E0E091F5
:1003B000AD01F091AE018281C81768F00150812F24
:1003C000902FDF91CF911F910F91FF90EF90DF90D1
:1003D0000895D0E0D9CF60E08E2D8C0F902F0E9431
:1003E000EE00CF5FE4CF2D2F4C2F6D2D0E946E00BD
:1003F000682F812F9F2D9D0F0E94EE00DF5F80915F
:10040000AD019091AE01FC012281D21760F3CF5F64
:100410009ACFD0E0F4CF60E0812F9F2D9C0F0E94F7
:10042000EE00CF5F9BCF0F931F93CF938C01C0E063
:10043000F80181918F01882341F00E949101BC0154
:10044000CF5F853014F477FFF3CF8C2FCF911F91BE
:100450000F9108950F931F93CF93DF938C019B010E
:100460001092B1014093B2011092B501C091AD015B
:10047000D091AE01209709F444C089816091AB010D
:100480007091AC0190E00E941307BC018091AF0114
:100490009091B0010E942407CB016AE070E00E94B5
:1004A00013079093B4018093B3013093AA01209372
:1004B000A90140E250E0B80186EB91E00E94790783
:1004C0008091A5019091A6010197D9F4F8010190BE
:1004D0000020E9F73197BF01601B710B89818F5FA5
:1004E0000E940A0781502091A7013091A80195E050
:1004F0002130310509F497E0981718F48EEF8093B6
:10050000B501DF91CF911F910F9108952091A7011F
:100510003091A80170E02130310509F476E04FEF09
:1005200060E00C942A0290E09093AC018093AB01C0
:1005300008959093A6018093A50108959093A80132
:100540008093A70108959093AE018093AD01089523
:100550008091E8039091E90301969093E9038093D9
:10056000E8032091B3013091B4018217930708F496
:1005700041C01092E9031092E803E091B101F0E06C
:10058000EB55FE4F8189811109C08091B201823003
:1005900088F181508093B2011092B1018091B10134
:1005A00090E0FC01EB55FE4F2189222319F12091A7
:1005B000B5014091A5015091A60141155105E1F009
:1005C0004130510551F18091B5018F5F8093B501A4
:1005D000082E000C990BE091AD01F091AE01218144
:1005E000281719063CF41092B5018091B1018F5F74
:1005F0008093B1010C94CB002111E5CF6091A9014A
:100600007091AA018A549E4F0E9413029091B101E9
:100610009150890F8093B101D6CF6091A90170915B
:10062000AA014091A7015091A8014130510531F430
:10063000720F8A549E4F0E941302C5CF621BF9CFDE
:10064000CF93DF93C5EAD1E09B878A870E94E700BA
:1006500084E190E09F838E83DF91CF910C948A0197
:10066000E1E6F0E080E880831082A89584B7877F78
:1006700084BFE0E6F0E08081886180831082089585
:10068000811105C0662311F0429A08954298089599
:100690003A9A429A08951092800084E080938100F3
:1006A00010928500109284000895809184009091AA
:1006B00085000895AC0180918400909185009C0193
:1006C000241B350B283E3340B0F708952091840059
:1006D00030918500820F931F0C945A03623071058C
:1006E00059F128F461307105E1F080E0089563303C
:1006F000710559F064307105C1F7FC01FF2784A131
:10070000892B84A385A1892B09C0FC01FF2784A123
:10071000892B84A325A1892F8095822385A381E03D
:100720000895FC01FF2724A1892F8095922F9823FB
:1007300094A395A18923F2CFFC01FF2724A1892F3F
:1007400080958223DECFE82FF0E0EE0FFF1FE65109
:10075000FC4F8081882329F0818191E08927817075
:10076000089580E0FCCFE82FF0E0EE0FFF1FE65188
:10077000FC4F8081811103C081818170089580E0E8
:10078000FCCFE82FF0E0EE0FFF1FE651FC4F808119
:100790000895E82FF0E0EE0FFF1FE651FC4F908127
:1007A00081E0892708957F928F929F92AF92BF92A6
:1007B000CF92DF92EF92FF920F931F93CF93DF932D
:1007C000CAEED3E058EBC52E53E0D52E66E0762E68
:1007D00088818983F601019111916F015801BB2431
:1007E000F50124A1E12EFF2485A190E08E219F2117
:1007F00030E02E213F21232BB1F133E0832E912CC9
:10080000892B19F094E0892E912C64E070E0C801E6
:100810000E946E0362E070E0C8010E946E03872DA3
:100820008A95F1F7F50183A190E0E822F92281E0B1
:10083000EF2809F080E08883B401C8010E946E03AC
:100840002296F3E0C43FDF0719F6DF91CF911F91A5
:100850000F91FF90EF90DF90CF90BF90AF909F905F
:100860008F907F90089588248394912C892B69F22E
:1008700082E0882E912CC9CF08959C01FC01FF27AE
:1008800084A1832B84A395A1892F832B85A381E049
:100890000895CF93DF93CCECD3E0899199910E9496
:1008A0003D0483E0CA3DD807C1F783E090E40E948D
:1008B0003D0480E090E80E943D0483E090E10E94C6
:1008C0003D0483E090E80E943D0483E090E2DF91E4
:1008D000CF910C943D04E091F403F0E0EE0FFF1F84
:1008E000EE53FC4F20813181F901FF2795A1932B15
:1008F00095A3ACECB3E02D913D91F901FF2780FF6A
:100900001CC025A1932F9095922395A3869593E0E3
:10091000AA3DB90781F7E62FF0E0EE0FFF1FEE5377
:10092000FC4F20813181F901FF2795A1832F80950C
:10093000892385A36093F403089595A1932BE5CFB4
:10094000CF93DF93EC010E944B039E0150E040E007
:1009500062E17AE780E090E00E9438073093F80384
:100960002093F703DF91CF9108958091F503909143
:10097000F6030E945A038091F5039091F6032091AB
:10098000F7033091F803820F931F9093F60380933F
:10099000F50308950C94A9050C94CA050C94AF05B1
:1009A0000C94B5050C94BB050E94BB050E94B505CF
:1009B0008823E1F38CE291E00197F1F70E94A90509
:1009C00081110C94CC0408950C94D105CF93DF933E
:1009D00000D01F92CDB7DEB78091DA039091DB0390
:1009E000A091DC0389839A83AB83509A589A0E9422
:1009F0007C058FE690E00E94130581E090E00E9464
:100A00006B0561E070E081E090E00E9458050E9473
:100A10004405CE0101960E9491050F900F900F9012
:100A2000DF91CF910895CF93DF931F92CDB7DEB7BB
:100A30009E012F5F3F4F45E06DED73E00E94DD05A5
:100A400091E0980F9093D6019981915097BD18BC71
:100A500095B5977039F025B59091D6019770287F9C
:100A6000922B95BD298130E0E82FF0E0E352FC4F56
:100A70008081A90102C0440F551F8A95E2F7CA017F
:100A80000F90DF91CF91089585B3897F85BB95B590
:100A90008091D6018770987F892B85BD089585B593
:100AA000887F85BD089585B382FB882780F90895E6
:100AB000009719F0019751F0089584B58F736295EE
:100AC000660F660F607C682B64BD089584B56295DF
:100AD00060738F7CF8CF009721F0019739F080E0A8
:100AE000089584B58C7F84BD81E0089584B58E7FA0
:100AF00084BD84B58260F7CF14BC15BC16BC18BC8D
:100B000084B58E7F84BD84B5826084BD81E0089504
:100B10009C01215031093093CD0081508093CC004D
:100B20000895CF93DF93EC01888199810E94880515
:100B30008A819BEF980F943008F088E098E19093B9
:100B4000C9008550880F8093CA0081E0DF91CF9162
:100B500008958091C800881F8827881F0895809174
:100B6000C80085FB882780F908958091C80086FB1E
:100B7000882780F90895CF93C82F0E94AF05882356
:100B8000E1F38091C80080648093C800C093CE00D8
:100B9000CF9108958091C80087FFFCCF8091CE004F
:100BA0000895CF93DF93EC018991811103C0DF9108
:100BB000CF9108950E94BB05F7CFCF93DF93DC015F
:100BC000FB0160E080E0C1E0D0E0841305C0F901E2
:100BD0006083DF91CF9108959191BE01092E02C0EB
:100BE000660F771F0A94E2F76F5F7F4F76956795E0
:100BF0006A0F7B1F02C0769567959A95E2F76F3F63
:100C0000710529F320F38F5FE0CF3F924F925F92FF
:100C10006F927F928F929F92AF92BF92CF92DF920C
:100C2000EF92FF920F931F93CF93DF938C017B0181
:100C3000712C512CD0E0C0E0612CB12C44244394A1
:100C40006C0185EAC80ED11C0E94B5040E94D30332
:100C500084E00E94A303382E8823B9F0762C7424F4
:100C600082E70E94D40458014501FFE08F0E911CD9
:100C7000F50181915F01805D0E94D4048A149B0478
:100C8000B9F7C814D90481F7B32C0E94CA04A82E5E
:100C9000882399F10E94CC04282F823759F4712CB3
:100CA0006A2CBB2089F27B2C2EC066246394BB2463
:100CB000B394CACF80ED820F8330F8F4DB30E9F0D3
:100CC000223309F423E38D2F90E06FE070E00E945F
:100CD00013078E0D9F1DFC01EC0FF11D2053208387
:100CE000CE3051F4DF5FDB3029F461E080E00E9418
:100CF00040035A2CC0E001C0CF5FBB2009F4A4CF51
:100D0000662009F4A1CF552081F2872DDF91CF9184
:100D10001F910F91FF90EF90DF90CF90BF90AF9019
:100D20009F908F907F906F905F904F903F9008952D
:100D300084E60C94D4040E94CA04982F882331F0CE
:100D40000E94CC0491E0843609F090E0892F089548
:100D5000CF93DF93CDB7DEB7C55AD1090FB6F8945C
:100D6000DEBF0FBECDBF0E9430030E9448030E9429
:100D70003C040E94E6048CE291E00E94A0048CE214
:100D800091E00E94200387ED91E00E94A30284E19C
:100D90000E94930281E090E00E94990260E080E06E
:100DA0000E944003BE016F5F7F4F80E091E00E9490
:100DB0000506182FCB55DF4F8881C55AD0408330A8
:100DC00021F460E080E00E9440030E94B5040E948C
:100DD000A8020E94D303112381F084E00E94A303A0
:100DE000882399F30E9498060E948A0161E082E0BC
:100DF00092E00E94EE0010E0E8CF0E949B06182FC0
:100E0000882319F30E948A0161E081E091E00E9449
:100E1000EE00DBCF002480FD060E660F11F08695F4
:100E2000D1F7802D08950024552704C0080E591FBE
:100E3000880F991F009729F076956795B8F371058B
:100E4000B9F7802D952F0895AA1BBB1B51E107C050
:100E5000AA1FBB1FA617B70710F0A61BB70B881F4A
:100E6000991F5A95A9F780959095BC01CD010895D9
:100E7000052E97FB1EF400940E944F0757FD07D0E4
:100E80000E94570707FC03D04EF40C944F0750956F
:100E90004095309521953F4F4F4F5F4F0895909566
:100EA0008095709561957F4F8F4F9F4F0895A1E278
:100EB0001A2EAA1BBB1BFD010DC0AA1FBB1FEE1FD4
:100EC000FF1FA217B307E407F50720F0A21BB30B1F
:100ED000E40BF50B661F771F881F991F1A9469F79B
:100EE00060957095809590959B01AC01BD01CF01F7
:100EF0000895FB01DC014150504048F001900D92F3
:100F00000020C9F701C01D9241505040E0F70895FC
:040F1000F894FFCF83
:100F140001010101010101010101010101010101BD
:100F240000000000000001000000000000010100BA
:100F340000000000000100000000000001010000AA
:100F4400000000000100000000000001010000009A
:100F54000000000100000000000001010101010186
:100F64000101010101010101010101000000000072
:100F7400000100000000000001010000000000006A
:100F84000100000000000001010000000000000159
:100F9400000000000000010100000000000001004A
:100FA4000000000000010101010101010101010132
:100FB4000101010102000000000000140000000013
:100FC400000000000000000000000000000000001D
:100FD400000000000000000000000000000000000D
:100FE40000000000000001010507205F050000006B
:100FF4000000C6186380014A290000004A7DF59567
:1010040002C417471F016322223206261551930595
:101014008608000000880821080282208488008055
:101024005457090080904F08000000608800008039
:101034000F00000000008C0100222202002EE63A7C
:10104400A303C4104288032E4244C4072E4207A3BC
:101054000388A9F411023F8407A3032E8617A30370
:101064003F424408012E4617A3032E460FA303C094
:1010740018600C00C0186088008888200802007C72
:10108400F0010082208888002E424400012E425B39
:10109400AB0344C51F63042FC617E3032E8610A2B7
:1010A400032FC618E3033F8417C2073F8417420087
:1010B4002E861EA30731C61F63048E1042880310B8
:1010C4004218A3033195515204218410C20771D7E9
:1010D4001A630471D61C63042EC618A3032FC61703
:1010E40042002EC65893052FC61763042E0607A385
:1010F400039F1042080131C618A30331C618150115
:1011040031C65AAB02312AA26204312A4208011FB5
:101114002222C207278410C20120088220000E2147
:101124008490034445000000000000C007822000B2
:1011340000000038E8A30721B419E30300B810A2A3
:101144000310DA1CA30700B8F883034C8A23840035
:10115400C0C7E8A10321B419630404184288030832
:101164003084920121A4324A02861042880300ACE2
:101174005A630400B419630400B818A30300BCF84C
:10118400420000D8EC210400B419420000B8E0E0A9
:1011940003421C21240300C418B30500C41815011C
:1011A40000C45AAB02004445540400C4E8A103003F
:1011B4007C44C4078810410802841042080182104C
:1011C40044880000888A00000380034003200080D4
:1011D400031003400080031003800320004000201C
:1011E40000100008000400020001D00008000306FB
:0211F400080AE7
:00000001FF
