:100000000C943A000C9457000C9457000C94570031
:100010000C9457000C9457000C9457000C94570004
:100020000C9457000C9457000C9457000C945700F4
:100030000C9457000C9457000C9457000C945700E4
:100040000C9457000C9457000C9457000C945700D4
:100050000C9457000C9457000C9457000C945700C4
:100060000C9457000C9457000C9457000C945700B4
:100070000C94570011241FBECFEFD4E0DEBFCDBFDC
:1000800011E0A0E0B1E0ECEAF0E102C005900D92D1
:10009000A63AB107D9F721E0A6EAB1E001C01D9266
:1000A000AF3BB207E1F70E94A7070C9454080C94E9
:1000B00000000F931F93CF93DF938C01D62FC09135
:1000C0004601FC018281882399F0F80181818C1717
:1000D00098F06D2F8C2F909149010E94B201CF5F53
:1000E000F4CF6D2F809149019C2F0E94B201CF5F08
:1000F000F80181818C17A8F7DF91CF911F910F91A3
:100100000895CF93DF93EC0180E00E946704882379
:1001100079F060E0CE010E9459008A81811146C0C9
:1001200088818823C9F0815088838981815013C0D8
:1001300081E00E9467048823C1F060E0CE010E9444
:1001400059008A81813059F48981843028F498815A
:100150009F5F98838F5F8983DF91CF9108958B8113
:100160008430D0F78F5F8B83F7CF82E00E946704E3
:10017000882379F060E0CE010E9459008A818111C4
:1001800004C08981863040F7E2CF8B81863020F72A
:10019000E9CF83E00E9467048823F1F260E0CE019A
:1001A0000E9459008A81813009F4BACF8B8188235B
:1001B00099F28150D8CF0F931F93CF93DF93EC0127
:1001C0008A8181110AC02091460130E0A981B0E006
:1001D00001E010E0A217B3072CF4DF91CF911F913B
:1001E0000F910895EB81C90165E070E00E94DF077F
:1001F000E80FF92FF11DEE0FFF1FE050FF4F1183A5
:1002000000832F5F3F4FE6CFCF93DF93EC0160E099
:100210000E9459008A8181110BC081E08A8383E0AA
:100220008B831882898181508983DF91CF910895D2
:100230001A8282E08B831882F8CF009789F0FC0144
:100240002381621B67FD09C0062E000C770B948189
:1002500081E09617170609F00CF480E0817008958C
:1002600080E00895FC01892B71F18181481758F5D0
:100270009281291740F59381A62FA91BA7FD23C0C2
:100280000A2E000CBB0B94819A171B06E1F0DCF0E0
:10029000622F0E94D607480F858190E0BD010E9421
:1002A000DF07242F269526952695E80FF91FE20FE4
:1002B000F11D868190E0477002C0959587954A951B
:1002C000E2F78170089580E00895853098F46730F2
:1002D00088F421E030E001C0220F6A95EAF7E82FA8
:1002E000F0E0E955FE4F822F8095908189234111DE
:1002F000822B80830895853080F4673070F4E82F76
:10030000F0E0E955FE4F81E090E001C0880F6A956A
:10031000EAF79081982381E009F480E008956091E4
:10032000A601E62FF0E0E955FE4F80810E942F05DF
:100330008091A6018F5F853018F48093A6010895FF
:100340001092A6010895E7EAF1E01082118212826C
:100350001382148208950E940D050C94A301692F45
:100360000C947B0141E0611101C040E0692F0C94C5
:1003700065010C94B2017F928F929F92AF92BF92CF
:10038000CF92DF92EF92FF920F931F93CF93DF9361
:10039000762E872EB42E7C01C62F660FDD0BC81B70
:1003A000D10987FDD395072F770F110B0F1911096D
:1003B000F7FC1395AA24AA94D7FD02C0AA24A394FB
:1003C00099249A9417FD02C099249394D7FF03C0EF
:1003D000D195C195D10917FF03C011950195110958
:1003E0006E01D594C794C017D107F4F46801D59471
:1003F000C794F814D9F06B2DC7010E94B201CC1A32
:10040000DD0AD7FE03C0C00ED11EEA0CF90CF1CFF5
:100410006B2DC7010E94B201C01AD10AD7FE03C0DA
:10042000CC0EDD1EF90CEA0CE710F2CF6B2DC701E4
:10043000DF91CF911F910F91FF90EF90DF90CF90C0
:10044000BF90AF909F908F907F900C94B201FF92DD
:100450000F931F93CF93DF93D82FF92E162FC72F0B
:10046000042F792F0E94BB01402F6D2F7C2F8D2FE1
:100470009F2D0E94BB01402F612F7C2F812F9F2D2C
:100480000E94BB01402F612F7C2F8D2F9C2FDF916D
:10049000CF911F910F91FF900C94BB010E94A3017B
:1004A000EAE4F1E0118A14860895DF92EF92FF9258
:1004B0000F931F93CF93DF93D82E7B01162F0F2D11
:1004C00080914C0190914D01C0E0019751F11E2D9A
:1004D0001C0FE0915201F09153018181C81708F47B
:1004E0005CC0C0E0E0915201F09153018281C817D5
:1004F00008F455C01F5F27C02D2F4C2F6D2D0E9473
:100500003201682F8E2D8D0F902F0E94B201DF5F78
:100510008091520190915301FC012281D21760F326
:10052000CF5F0F2D0C1BE0915201F091530181819F
:10053000C81798F0C0E0E0915201F0915301828118
:10054000C81768F00150812F902FDF91CF911F9134
:100550000F91FF90EF90DF900895D0E0D9CF60E049
:100560008E2D8C0F902F0E94B201CF5FE4CF2D2FE4
:100570004C2F6D2D0E943201682F812F9F2D9D0FD2
:100580000E94B201DF5F8091520190915301FC0102
:100590002281D21760F3CF5F9ACFD0E0F4CF60E032
:1005A000812F9F2D9C0F0E94B201CF5F9BCF0F9395
:1005B0001F93CF938C01C0E0F80181918F018823B4
:1005C00041F00E945502BC01CF5F853014F477FFE3
:1005D000F3CF8C2FCF911F910F9108950F931F93FD
:1005E000CF93DF938C019B011092560140935701EA
:1005F00010925A01C0915201D0915301209709F4F1
:1006000044C08981609150017091510190E00E9435
:10061000DF07BC0180915401909155010E94F007C1
:10062000CB016AE070E00E94DF079093590180934C
:10063000580130934F0120934E0140E250E0B80141
:100640008BE591E00E94450880914A0190914B0111
:100650000197D9F4F80101900020E9F73197BF0123
:10066000601B710B89818F5F0E94D607815020919A
:100670004C0130914D0195E02130310509F497E0AE
:10068000981718F48EEF80935A01DF91CF911F9144
:100690000F91089520914C0130914D0170E021306F
:1006A000310509F476E04FEF60E00C94EE0290E043
:1006B0009093510180935001089590934B01809342
:1006C0004A01089590934D0180934C0108959093B1
:1006D00053018093520108958091AC019091AD0136
:1006E00001969093AD018093AC0120915801309117
:1006F00059018217930708F441C01092AD0110927E
:10070000AC01E0915601F0E0E65BFE4F818981117A
:1007100009C080915701823088F181508093570140
:10072000109256018091560190E0FC01E65BFE4F6D
:100730002189222319F120915A0140914A015091B7
:100740004B0141155105E1F04130510551F18091C6
:100750005A018F5F80935A01082E000C990BE0918B
:100760005201F09153012181281719063CF410928F
:100770005A01809156018F5F809356010C948F012E
:100780002111E5CF60914E0170914F01855A9E4F26
:100790000E94D702909156019150890F8093560183
:1007A000D6CF60914E0170914F0140914C01509114
:1007B0004D014130510531F4720F855A9E4F0E9410
:1007C000D702C5CF621BF9CFCF93DF93CAE4D1E044
:1007D0009B878A870E94AB0184E190E09F838E8390
:1007E000DF91CF910C944E02E1E6F0E080E8808347
:1007F0001082A89584B7877F84BFE0E6F0E080810F
:100800008861808310820895811105C0662311F0EC
:10081000429A0895429808953A9A429A08951092F9
:10082000800084E080938100109285001092840003
:10083000089580918400909185000895AC01809185
:100840008400909185009C01241B350B283E334089
:10085000B0F708952091840030918500820F931F96
:100860000C941E046230710559F128F46130710551
:10087000E1F080E008956330710559F0643071054E
:10088000C1F7FC01FF2784A1892B84A385A1892BB3
:1008900009C0FC01FF2784A1892B84A325A1892FEE
:1008A0008095822385A381E00895FC01FF2724A180
:1008B000892F8095922F982394A395A18923F2CF15
:1008C000FC01FF2724A1892F80958223DECFE82F0A
:1008D000F0E0EE0FFF1FE255FE4F8081882329F0E4
:1008E000818191E089278170089580E0FCCFE82F15
:1008F000F0E0EE0FFF1FE255FE4F8081811103C033
:1009000081818170089580E0FCCFE82FF0E0EE0F48
:10091000FF1FE255FE4F80810895E82FF0E0EE0FB3
:10092000FF1FE255FE4F908181E0892708957F9255
:100930008F929F92AF92BF92CF92DF92EF92FF92EF
:100940000F931F93CF93DF93CEEAD1E05CE7C52EE0
:1009500051E0D52E66E0762E88818983F6010191DB
:1009600011916F015801BB24F50124A1E12EFF2450
:1009700085A190E08E219F2130E02E213F21232B65
:10098000B1F133E0832E912C892B19F094E0892E5C
:10099000912C64E070E0C8010E94320462E070E0D3
:1009A000C8010E943204872D8A95F1F7F50183A1D1
:1009B00090E0E822F92281E0EF2809F080E08883C6
:1009C000B401C8010E9432042296F1E0C83BDF075F
:1009D00019F6DF91CF911F910F91FF90EF90DF906B
:1009E000CF90BF90AF909F908F907F900895882474
:1009F0008394912C892B69F282E0882E912CC9CFA7
:100A000008959C01FC01FF2784A1832B84A395A159
:100A1000892F832B85A381E00895CF93DF93C0E9CD
:100A2000D1E0899199910E94010581E0CE39D807E2
:100A3000C1F783E090E40E94010580E090E80E9405
:100A4000010583E090E10E94010583E090E80E94A7
:100A5000010583E090E2DF91CF910C940105E091D4
:100A6000B801F0E0EE0FFF1FEA57FE4F2081318101
:100A7000F901FF2795A1932B95A3A0E9B1E02D9152
:100A80003D91F901FF2780FF1CC025A1932F909570
:100A9000922395A3869591E0AE39B90781F7E62FA9
:100AA000F0E0EE0FFF1FEA57FE4F20813181F90180
:100AB000FF2795A1832F8095892385A36093B80193
:100AC000089595A1932BE5CFCF93DF93EC010E947E
:100AD0000F049E0150E040E062E17AE780E090E0A0
:100AE0000E9404083093BC012093BB01DF91CF9199
:100AF00008958091B9019091BA010E941E048091DD
:100B0000B9019091BA012091BB013091BC01820FD3
:100B1000931F9093BA018093B90108950C946D06C8
:100B20000C948E060C9473060C9479060C947F0634
:100B30000E947F060E9479068823E1F38CE291E00F
:100B40000197F1F70E946D0681110C9490050895AC
:100B50000C949506CF93DF9300D01F92CDB7DEB7EC
:100B600080919E0190919F01A091A00189839A8319
:100B7000AB83509A589A0E9440068FE690E00E94FC
:100B8000D70581E090E00E942F0661E070E081E0EF
:100B900090E00E941C060E940806CE0101960E9469
:100BA00055060F900F900F90DF91CF910895CF933E
:100BB000DF931F92CDB7DEB79E012F5F3F4F45E019
:100BC00061EA71E00E94A10691E0980F90937B0189
:100BD0009981915097BD18BC95B5977039F025B59E
:100BE00090917B019770287F922B95BD298130E0F1
:100BF000E82FF0E0EF55FE4F8081A90102C0440FBD
:100C0000551F8A95E2F7CA010F90DF91CF910895A1
:100C100085B3897F85BB95B580917B018770987F6F
:100C2000892B85BD089585B5887F85BD089585B3D9
:100C300082FB882780F90895009719F0019751F0F9
:100C4000089584B58F736295660F660F607C682B7C
:100C500064BD089584B5629560738F7CF8CF00976A
:100C600021F0019739F080E0089584B58C7F84BD30
:100C700081E0089584B58E7F84BD84B58260F7CF0E
:100C800014BC15BC16BC18BC84B58E7F84BD84B55D
:100C9000826084BD81E008959C0121503109309328
:100CA000CD0081508093CC000895CF93DF93EC0169
:100CB000888199810E944C068A819BEF980F94301D
:100CC00008F088E098E19093C9008550880F8093E0
:100CD000CA0081E0DF91CF9108958091C800881FFC
:100CE0008827881F08958091C80085FB882780F990
:100CF00008958091C80086FB882780F90895CF93D6
:100D0000C82F0E9473068823E1F38091C800806495
:100D10008093C800C093CE00CF9108958091C80001
:100D200087FFFCCF8091CE000895CF93DF93EC0135
:100D30008991811103C0DF91CF9108950E947F06B0
:100D4000F7CFCF93DF93DC01FB0160E080E0C1E0EF
:100D5000D0E0841305C0F9016083DF91CF9108953D
:100D60009191BE01092E02C0660F771F0A94E2F727
:100D70006F5F7F4F769567956A0F7B1F02C07695F0
:100D800067959A95E2F76F3F710529F320F38F5F1E
:100D9000E0CF3F924F925F926F927F928F929F929D
:100DA000AF92BF92CF92DF92EF92FF920F931F9379
:100DB000CF93DF938C017B01712C512CD0E0C0E0EC
:100DC000612CB12C442443946C0185EAC80ED11CDB
:100DD0000E9479050E94970484E00E946704382EDF
:100DE0008823B9F0762C742482E70E949805580174
:100DF0004501FFE08F0E911CF50181915F01805D3F
:100E00000E9498058A149B04B9F7C814D90481F785
:100E1000B32C0E948E05A82E882399F10E9490057C
:100E2000282F823759F4712C6A2CBB2089F27B2C35
:100E30002EC066246394BB24B394CACF80ED820F86
:100E40008330F8F4DB30E9F0223309F423E38D2F0B
:100E500090E06FE070E00E94DF078E0D9F1DFC01A7
:100E6000EC0FF11D20532083CE3051F4DF5FDB30D7
:100E700029F461E080E00E9404045A2CC0E001C023
:100E8000CF5FBB2009F4A4CF662009F4A1CF552081
:100E900081F2872DDF91CF911F910F91FF90EF90FD
:100EA000DF90CF90BF90AF909F908F907F906F908A
:100EB0005F904F903F90089584E60C9498050E94AF
:100EC0008E05982F882331F00E94900591E084369A
:100ED00009F090E0892F089581110CC08091BD0127
:100EE000882331F08091BE0191E0892781700895B7
:100EF00080E0FCCF80E0089581110AC08091BD019F
:100F0000811104C08091BE018170089580E0FCCF02
:100F100080E00895811103C08091BD01089580E0B3
:100F20000895811105C08091BD0191E08927089540
:100F300080E00895EDEBF1E08081818389B1881F25
:100F40008827881F8083089557985F9808950E9486
:100F5000F4030E9400050E940C048CE291E00E94C0
:100F6000E4038CE291E00E9464050E94A40760E023
:100F700080E00E9404040E9479050E9497040E9468
:100F80009A0780E00E946C07882321F086E491E0B4
:100F90000E94040186E491E00E94810061E086E401
:100FA00091E00E9459000E946C03E5CF002480FD6F
:100FB000060E660F11F08695D1F7802D0895002456
:100FC000552704C0080E591F880F991F009729F054
:100FD00076956795B8F37105B9F7802D952F08952B
:100FE000AA1BBB1B51E107C0AA1FBB1FA617B7074F
:100FF00010F0A61BB70B881F991F5A95A9F780956B
:101000009095BC01CD010895052E97FB1EF4009428
:101010000E941B0857FD07D00E94230807FC03D03D
:101020004EF40C941B0850954095309521953F4FF8
:101030004F4F5F4F089590958095709561957F4FC4
:101040008F4F9F4F0895A1E21A2EAA1BBB1BFD01D3
:101050000DC0AA1FBB1FEE1FFF1FA217B307E40797
:10106000F50720F0A21BB30BE40BF50B661F771FEF
:10107000881F991F1A9469F76095709580959095CF
:101080009B01AC01BD01CF010895FB01DC01415082
:10109000504048F001900D920020C9F701C01D9208
:0C10A00041505040E0F70895F894FFCF55
:1010AC00010000000100000000000100010001002F
:1010BC000100000001000000010000000000010020
:1010CC000000000000000000010000000000000013
:1010DC000000010000000000000000000100000002
:1010EC0000000000000001040002000000000000ED
:1010FC0014000000000000000000000000000000D0
:10110C0000000000000000000000000000000000D3
:10111C0000000000000000000000000103800340FC
:10112C000320008003100340008003100380032081
:10113C000040002000100008000400020001D00054
:06114C0008000306080A7A
:00000001FF
